{
  "contractName": "NEPSETMS",
  "abi": [
    {
      "inputs": [],
      "payable": false,
      "stateMutability": "nonpayable",
      "type": "constructor"
    },
    {
      "anonymous": false,
      "inputs": [
        {
          "indexed": false,
          "internalType": "address",
          "name": "buyer",
          "type": "address"
        },
        {
          "indexed": false,
          "internalType": "uint256",
          "name": "quantity",
          "type": "uint256"
        }
      ],
      "name": "LogBuyers",
      "type": "event"
    },
    {
      "anonymous": false,
      "inputs": [
        {
          "indexed": false,
          "internalType": "address",
          "name": "seller",
          "type": "address"
        },
        {
          "indexed": false,
          "internalType": "uint256",
          "name": "quantity",
          "type": "uint256"
        }
      ],
      "name": "LogSellers",
      "type": "event"
    },
    {
      "anonymous": false,
      "inputs": [
        {
          "indexed": false,
          "internalType": "address",
          "name": "owner",
          "type": "address"
        },
        {
          "indexed": false,
          "internalType": "uint256",
          "name": "balance",
          "type": "uint256"
        }
      ],
      "name": "LogTransactions",
      "type": "event"
    },
    {
      "constant": true,
      "inputs": [],
      "name": "readEvent",
      "outputs": [
        {
          "internalType": "string",
          "name": "description",
          "type": "string"
        },
        {
          "internalType": "string",
          "name": "website",
          "type": "string"
        },
        {
          "internalType": "uint256",
          "name": "totalshares",
          "type": "uint256"
        },
        {
          "internalType": "uint256",
          "name": "sales",
          "type": "uint256"
        },
        {
          "internalType": "bool",
          "name": "isOpen",
          "type": "bool"
        }
      ],
      "payable": false,
      "stateMutability": "view",
      "type": "function"
    },
    {
      "constant": true,
      "inputs": [
        {
          "internalType": "address",
          "name": "ad",
          "type": "address"
        }
      ],
      "name": "PortfolioValue",
      "outputs": [
        {
          "internalType": "uint256",
          "name": "Value",
          "type": "uint256"
        }
      ],
      "payable": false,
      "stateMutability": "view",
      "type": "function"
    },
    {
      "constant": false,
      "inputs": [
        {
          "internalType": "address",
          "name": "ad",
          "type": "address"
        }
      ],
      "name": "Allocate",
      "outputs": [
        {
          "internalType": "address",
          "name": "",
          "type": "address"
        }
      ],
      "payable": true,
      "stateMutability": "payable",
      "type": "function"
    },
    {
      "constant": true,
      "inputs": [
        {
          "internalType": "address",
          "name": "ad",
          "type": "address"
        }
      ],
      "name": "sharecount",
      "outputs": [
        {
          "internalType": "uint256",
          "name": "",
          "type": "uint256"
        }
      ],
      "payable": false,
      "stateMutability": "view",
      "type": "function"
    },
    {
      "constant": false,
      "inputs": [
        {
          "internalType": "uint256",
          "name": "_share",
          "type": "uint256"
        }
      ],
      "name": "buyShares",
      "outputs": [
        {
          "internalType": "bool",
          "name": "",
          "type": "bool"
        }
      ],
      "payable": true,
      "stateMutability": "payable",
      "type": "function"
    },
    {
      "constant": false,
      "inputs": [
        {
          "internalType": "address",
          "name": "IP",
          "type": "address"
        }
      ],
      "name": "IPO",
      "outputs": [
        {
          "internalType": "bool",
          "name": "",
          "type": "bool"
        }
      ],
      "payable": true,
      "stateMutability": "payable",
      "type": "function"
    },
    {
      "constant": false,
      "inputs": [
        {
          "internalType": "uint256",
          "name": "_share",
          "type": "uint256"
        }
      ],
      "name": "sellShares",
      "outputs": [
        {
          "internalType": "bool",
          "name": "",
          "type": "bool"
        }
      ],
      "payable": true,
      "stateMutability": "payable",
      "type": "function"
    },
    {
      "constant": false,
      "inputs": [],
      "name": "SEBON",
      "outputs": [
        {
          "internalType": "string",
          "name": "",
          "type": "string"
        }
      ],
      "payable": true,
      "stateMutability": "payable",
      "type": "function"
    }
  ],
  "bytecode": "0x608060405234801561001057600080fd5b50336000806101000a81548173ffffffffffffffffffffffffffffffffffffffff021916908373ffffffffffffffffffffffffffffffffffffffff1602179055506040518060400160405280600481526020017f4e4c4943000000000000000000000000000000000000000000000000000000008152506001600001908051906020019061009f929190610127565b506040518060400160405280600c81526020017f7777772e4e4c49432e636f6d00000000000000000000000000000000000000008152506001800190805190602001906100ed929190610127565b50620f42406001600401819055506001806005018190555060018060080160006101000a81548160ff0219169083151502179055506101cc565b828054600181600116156101000203166002900490600052602060002090601f016020900481019282601f1061016857805160ff1916838001178555610196565b82800160010185558215610196579182015b8281111561019557825182559160200191906001019061017a565b5b5090506101a391906101a7565b5090565b6101c991905b808211156101c55760008160009055506001016101ad565b5090565b90565b610dab806101db6000396000f3fe60806040526004361061007b5760003560e01c8063971bd7d41161004e578063971bd7d4146102bb578063bee187e314610320578063d1a93d18146103a3578063f938c8dd146103e95761007b565b806305aea97c14610080578063313912e6146101955780634ba8ae81146101f157806368113b9014610237575b600080fd5b34801561008c57600080fd5b5061009561044e565b60405180806020018060200186815260200185815260200184151515158152602001838103835288818151815260200191508051906020019080838360005b838110156100ef5780820151818401526020810190506100d4565b50505050905090810190601f16801561011c5780820380516001836020036101000a031916815260200191505b50838103825287818151815260200191508051906020019080838360005b8381101561015557808201518184015260208101905061013a565b50505050905090810190601f1680156101825780820380516001836020036101000a031916815260200191505b5097505050505050505060405180910390f35b6101d7600480360360208110156101ab57600080fd5b81019080803573ffffffffffffffffffffffffffffffffffffffff1690602001909291905050506105d0565b604051808215151515815260200191505060405180910390f35b61021d6004803603602081101561020757600080fd5b81019080803590602001909291905050506106e5565b604051808215151515815260200191505060405180910390f35b6102796004803603602081101561024d57600080fd5b81019080803573ffffffffffffffffffffffffffffffffffffffff169060200190929190505050610894565b604051808273ffffffffffffffffffffffffffffffffffffffff1673ffffffffffffffffffffffffffffffffffffffff16815260200191505060405180910390f35b3480156102c757600080fd5b5061030a600480360360208110156102de57600080fd5b81019080803573ffffffffffffffffffffffffffffffffffffffff16906020019092919050505061089e565b6040518082815260200191505060405180910390f35b6103286108f4565b6040518080602001828103825283818151815260200191508051906020019080838360005b8381101561036857808201518184015260208101905061034d565b50505050905090810190601f1680156103955780820380516001836020036101000a031916815260200191505b509250505060405180910390f35b6103cf600480360360208110156103b957600080fd5b8101908080359060200190929190505050610ad3565b604051808215151515815260200191505060405180910390f35b3480156103f557600080fd5b506104386004803603602081101561040c57600080fd5b81019080803573ffffffffffffffffffffffffffffffffffffffff169060200190929190505050610d09565b6040518082815260200191505060405180910390f35b606080600080600060016000018054600181600116156101000203166002900480601f0160208091040260200160405190810160405280929190818152602001828054600181600116156101000203166002900480156104ef5780601f106104c4576101008083540402835291602001916104ef565b820191906000526020600020905b8154815290600101906020018083116104d257829003601f168201915b50505050509450600180018054600181600116156101000203166002900480601f01602080910402602001604051908101604052809291908181526020018280546001816001161561010002031660029004801561058e5780601f106105635761010080835404028352916020019161058e565b820191906000526020600020905b81548152906001019060200180831161057157829003601f168201915b5050505050935060016004015492506001600601549150600160080160009054906101000a900460ff1690508484848484945094509450945094509091929394565b60003373ffffffffffffffffffffffffffffffffffffffff166000809054906101000a900473ffffffffffffffffffffffffffffffffffffffff1673ffffffffffffffffffffffffffffffffffffffff1614610694576040517f08c379a00000000000000000000000000000000000000000000000000000000081526004018080602001828103825260178152602001807f526571756972656420746f20626520616e206f776e657200000000000000000081525060200191505060405180910390fd5b600a600160070160008473ffffffffffffffffffffffffffffffffffffffff1673ffffffffffffffffffffffffffffffffffffffff1681526020019081526020016000208190555060019050919050565b600060011515600160080160009054906101000a900460ff16151514610756576040517f08c379a0000000000000000000000000000000000000000000000000000000008152600401808060200182810382526021815260200180610d566021913960400191505060405180910390fd5b60006001600501548302905082600160070160003273ffffffffffffffffffffffffffffffffffffffff1673ffffffffffffffffffffffffffffffffffffffff1681526020019081526020016000206000828254039250508190555082600160060160008282540192505081905550826001600301600082825401925050819055503373ffffffffffffffffffffffffffffffffffffffff166108fc829081150290604051600060405180830381858888f1935050505015801561081e573d6000803e3d6000fd5b507f1a84fce3a38cfa045f1163cdeb014634dbc4cd07fa91763f3fa89c42b86b7f493284604051808373ffffffffffffffffffffffffffffffffffffffff1673ffffffffffffffffffffffffffffffffffffffff1681526020018281526020019250505060405180910390a16001915050919050565b6000819050919050565b6000600160070160008373ffffffffffffffffffffffffffffffffffffffff1673ffffffffffffffffffffffffffffffffffffffff16815260200190815260200160002054600160050154029050809050919050565b60603373ffffffffffffffffffffffffffffffffffffffff166000809054906101000a900473ffffffffffffffffffffffffffffffffffffffff1673ffffffffffffffffffffffffffffffffffffffff16146109b8576040517f08c379a00000000000000000000000000000000000000000000000000000000081526004018080602001828103825260178152602001807f526571756972656420746f20626520616e206f776e657200000000000000000081525060200191505060405180910390fd5b3373ffffffffffffffffffffffffffffffffffffffff166000809054906101000a900473ffffffffffffffffffffffffffffffffffffffff1673ffffffffffffffffffffffffffffffffffffffff1614610a7a576040517f08c379a00000000000000000000000000000000000000000000000000000000081526004018080602001828103825260178152602001807f526571756972656420746f20626520616e206f776e657200000000000000000081525060200191505060405180910390fd5b6000600160080160006101000a81548160ff0219169083151502179055506040518060400160405280600381526020017f33706d0000000000000000000000000000000000000000000000000000000000815250905090565b600060011515600160080160009054906101000a900460ff16151514610b44576040517f08c379a0000000000000000000000000000000000000000000000000000000008152600401808060200182810382526021815260200180610d566021913960400191505060405180910390fd5b60006001600501548302905080341015610bc6576040517f08c379a00000000000000000000000000000000000000000000000000000000081526004018080602001828103825260158152602001807f416d6f756e74206e6f742073756666696369656e74000000000000000000000081525060200191505060405180910390fd5b82600160070160003273ffffffffffffffffffffffffffffffffffffffff1673ffffffffffffffffffffffffffffffffffffffff16815260200190815260200160002060008282540192505081905550826001600601600082825401925050819055508260016002016000828254019250508190555080341115610c9457600081340390503273ffffffffffffffffffffffffffffffffffffffff166108fc829081150290604051600060405180830381858888f19350505050158015610c91573d6000803e3d6000fd5b50505b7f03b450cee3ec96182af9e1e45e190083a770a02345b0c390e6341db8f07a47bb3284604051808373ffffffffffffffffffffffffffffffffffffffff1673ffffffffffffffffffffffffffffffffffffffff1681526020018281526020019250505060405180910390a16001915050919050565b6000600160070160008373ffffffffffffffffffffffffffffffffffffffff1673ffffffffffffffffffffffffffffffffffffffff16815260200190815260200160002054905091905056fe536f7272792c54696d65206973206e6f7420666f72207472616e73616374696f6ea265627a7a7231582059c25b26da1a675eb9a8aca070f2622c1ce98e6d5d0e35b5c04dae89dafca37164736f6c63430005100032",
  "source": "pragma solidity ^0.5.0;\n\n// import \"../erc721.sol\";\n\ncontract NEPSETMS {\n\n    address payable owner;\n    // token tokencontract;\n\n\n    struct Event {\n        string stock_name;\n        \n        string website;\n        \n        uint256 totalbuy;\n        uint256 totalsell;\n        uint256 totalshares;\n        uint256 SHARE_PRICE;\n        uint256 sales;\n        mapping(address => uint256) portfolio;\n        bool isOpen;\n    }\n    Event myEvent;\n\n   \n\n    \n    event LogBuyers(address buyer, uint256 quantity);\n    event LogSellers(address seller, uint256 quantity);\n    event LogTransactions(address owner, uint256 balance);\n    \n\n\n    modifier OnlyOwner {\n        require(owner == msg.sender, \"Required to be an owner\");\n        _;\n    }\n    \n\n\n    constructor() public\n    {\n        owner = msg.sender;\n        myEvent.stock_name = \"NLIC\";\n        myEvent.website = \"www.NLIC.com\";\n        myEvent.totalshares = 1000000;\n        myEvent.SHARE_PRICE = 1;\n        myEvent.isOpen = true;\n        \n    }\n\n\n    function readEvent()\n        public\n        view\n        returns(string memory description, string memory website, uint totalshares,uint sales, bool isOpen)\n    {\n        description = myEvent.stock_name;\n        website = myEvent.website;\n        totalshares = myEvent.totalshares;\n        sales = myEvent.sales;\n        isOpen = myEvent.isOpen;\n\n        return (description, website, totalshares, sales, isOpen);\n\n    }\n    \n    \n    function PortfolioValue(address ad)\n        public\n        view\n        returns(uint256 Value)\n    {\n        \n        Value = myEvent.SHARE_PRICE * myEvent.portfolio[ad];\n\n        return (Value);\n\n    }\n\n    function Allocate(address ad) public payable returns(address)\n    {\n            return ad;\n    }\n\n\n    function sharecount(address ad)\n        public\n        view\n        returns(uint)\n        {\n\n        return (myEvent.portfolio[ad]);\n\n    }\n    \n\n    \n    function buyShares(uint256 _share) public payable returns (bool) {\n        require(myEvent.isOpen == true, \"Sorry,Time is not for transaction\");\n        uint256 amount = _share * myEvent.SHARE_PRICE;\n        require(msg.value >= amount, \"Amount not sufficient\");\n        myEvent.portfolio[tx.origin] += _share;\n        myEvent.sales += _share;\n        myEvent.totalbuy += _share;\n\n        if (msg.value > amount) {\n            uint256 surplus = msg.value - amount;\n            tx.origin.transfer(surplus);\n        }\n\n        emit LogBuyers(tx.origin, _share);\n        return true;\n    }\n\n    function IPO(address IP) \n        public \n        payable \n        returns (bool)\n    {\n        require(owner == msg.sender, \"Required to be an owner\");\n        myEvent.portfolio[IP] = 10;\n        return true;\n    }\n    \n    function sellShares(uint256 _share) public payable returns (bool) {\n        require(myEvent.isOpen == true, \"Sorry,Time is not for transaction\");\n        uint256 amount = _share * myEvent.SHARE_PRICE;\n        myEvent.portfolio[tx.origin] -= _share;\n        myEvent.sales += _share;\n        myEvent.totalsell += _share;\n        msg.sender.transfer(amount);\n        emit LogSellers(tx.origin, _share);\n        return true;\n    }\n\n    \n\n\n\n\n\n\n    function SEBON() public OnlyOwner payable returns (string memory) {\n\n        require(owner == msg.sender, \"Required to be an owner\");\n        myEvent.isOpen = false;\n        //owner.transfer(myEvent.sales * myEvent.SHARE_PRICE);\n\n        //emit LogTransactions(owner, myEvent.sales * myEvent.SHARE_PRICE);\n        return \"3pm\";\n    }\n}\n",
  "sourcePath": "/home/kalyan/Desktop/Blockchain-Aided-TMS/contracts/TMS.sol",
  "compiler": {
    "name": "solc",
    "version": "0.5.16+commit.9c3226ce.Emscripten.clang"
  },
  "schemaVersion": "3.4.1",
  "updatedAt": "2021-07-31T10:52:20.254Z",
  "devdoc": {
    "methods": {}
  },
  "userdoc": {
    "methods": {}
  }
}