{
  "contractName": "NEPSETMS",
  "abi": [
    {
      "inputs": [
        {
          "internalType": "string",
          "name": "stock_name",
          "type": "string"
        },
        {
          "internalType": "string",
          "name": "_url",
          "type": "string"
        },
        {
          "internalType": "uint256",
          "name": "totalshares",
          "type": "uint256"
        },
        {
          "internalType": "uint256",
          "name": "SHARE_PRICE",
          "type": "uint256"
        }
      ],
      "payable": false,
      "stateMutability": "nonpayable",
      "type": "constructor"
    },
    {
      "anonymous": false,
      "inputs": [
        {
          "indexed": false,
          "internalType": "address",
          "name": "buyer",
          "type": "address"
        },
        {
          "indexed": false,
          "internalType": "uint256",
          "name": "quantity",
          "type": "uint256"
        }
      ],
      "name": "LogBuyers",
      "type": "event"
    },
    {
      "anonymous": false,
      "inputs": [
        {
          "indexed": false,
          "internalType": "address",
          "name": "seller",
          "type": "address"
        },
        {
          "indexed": false,
          "internalType": "uint256",
          "name": "quantity",
          "type": "uint256"
        }
      ],
      "name": "LogSellers",
      "type": "event"
    },
    {
      "anonymous": false,
      "inputs": [
        {
          "indexed": false,
          "internalType": "address",
          "name": "owner",
          "type": "address"
        },
        {
          "indexed": false,
          "internalType": "uint256",
          "name": "balance",
          "type": "uint256"
        }
      ],
      "name": "LogTransactions",
      "type": "event"
    },
    {
      "constant": true,
      "inputs": [],
      "name": "readEvent",
      "outputs": [
        {
          "internalType": "string",
          "name": "description",
          "type": "string"
        },
        {
          "internalType": "string",
          "name": "website",
          "type": "string"
        },
        {
          "internalType": "uint256",
          "name": "totalshares",
          "type": "uint256"
        },
        {
          "internalType": "uint256",
          "name": "sales",
          "type": "uint256"
        },
        {
          "internalType": "bool",
          "name": "isOpen",
          "type": "bool"
        }
      ],
      "payable": false,
      "stateMutability": "view",
      "type": "function"
    },
    {
      "constant": true,
      "inputs": [
        {
          "internalType": "address",
          "name": "ad",
          "type": "address"
        }
      ],
      "name": "PortfolioValue",
      "outputs": [
        {
          "internalType": "uint256",
          "name": "Value",
          "type": "uint256"
        }
      ],
      "payable": false,
      "stateMutability": "view",
      "type": "function"
    },
    {
      "constant": true,
      "inputs": [],
      "name": "MarketDepth",
      "outputs": [
        {
          "internalType": "uint256[]",
          "name": "",
          "type": "uint256[]"
        }
      ],
      "payable": false,
      "stateMutability": "view",
      "type": "function"
    },
    {
      "constant": true,
      "inputs": [
        {
          "internalType": "address",
          "name": "ad",
          "type": "address"
        }
      ],
      "name": "sharecount",
      "outputs": [
        {
          "internalType": "uint256",
          "name": "",
          "type": "uint256"
        }
      ],
      "payable": false,
      "stateMutability": "view",
      "type": "function"
    },
    {
      "constant": false,
      "inputs": [
        {
          "internalType": "uint256",
          "name": "_share",
          "type": "uint256"
        }
      ],
      "name": "buyShares",
      "outputs": [
        {
          "internalType": "bool",
          "name": "",
          "type": "bool"
        }
      ],
      "payable": true,
      "stateMutability": "payable",
      "type": "function"
    },
    {
      "constant": false,
      "inputs": [
        {
          "internalType": "uint256",
          "name": "_share",
          "type": "uint256"
        }
      ],
      "name": "buyability",
      "outputs": [
        {
          "internalType": "bool",
          "name": "",
          "type": "bool"
        }
      ],
      "payable": true,
      "stateMutability": "payable",
      "type": "function"
    },
    {
      "constant": false,
      "inputs": [
        {
          "internalType": "uint256",
          "name": "_share",
          "type": "uint256"
        }
      ],
      "name": "sellShares",
      "outputs": [
        {
          "internalType": "string",
          "name": "",
          "type": "string"
        }
      ],
      "payable": true,
      "stateMutability": "payable",
      "type": "function"
    },
    {
      "constant": false,
      "inputs": [
        {
          "internalType": "uint256",
          "name": "_share",
          "type": "uint256"
        }
      ],
      "name": "sellability",
      "outputs": [
        {
          "internalType": "bool",
          "name": "",
          "type": "bool"
        }
      ],
      "payable": true,
      "stateMutability": "payable",
      "type": "function"
    },
    {
      "constant": false,
      "inputs": [
        {
          "internalType": "address",
          "name": "IPO",
          "type": "address"
        }
      ],
      "name": "allocate",
      "outputs": [
        {
          "internalType": "string",
          "name": "",
          "type": "string"
        }
      ],
      "payable": true,
      "stateMutability": "payable",
      "type": "function"
    },
    {
      "constant": false,
      "inputs": [],
      "name": "SEBON",
      "outputs": [
        {
          "internalType": "string",
          "name": "",
          "type": "string"
        }
      ],
      "payable": true,
      "stateMutability": "payable",
      "type": "function"
    }
  ],
  "bytecode": "0x60806040526000600e553480156200001657600080fd5b50604051620019e2380380620019e2833981810160405260808110156200003c57600080fd5b81019080805160405193929190846401000000008211156200005d57600080fd5b838201915060208201858111156200007457600080fd5b82518660018202830111640100000000821117156200009257600080fd5b8083526020830192505050908051906020019080838360005b83811015620000c8578082015181840152602081019050620000ab565b50505050905090810190601f168015620000f65780820380516001836020036101000a031916815260200191505b50604052602001805160405193929190846401000000008211156200011a57600080fd5b838201915060208201858111156200013157600080fd5b82518660018202830111640100000000821117156200014f57600080fd5b8083526020830192505050908051906020019080838360005b838110156200018557808201518184015260208101905062000168565b50505050905090810190601f168015620001b35780820380516001836020036101000a031916815260200191505b506040526020018051906020019092919080519060200190929190505050336000806101000a81548173ffffffffffffffffffffffffffffffffffffffff021916908373ffffffffffffffffffffffffffffffffffffffff16021790555083600160000190805190602001906200022c92919062000283565b50826001800190805190602001906200024792919062000283565b50816001600401819055508060016005018190555060018060080160006101000a81548160ff0219169083151502179055505050505062000332565b828054600181600116156101000203166002900490600052602060002090601f016020900481019282601f10620002c657805160ff1916838001178555620002f7565b82800160010185558215620002f7579182015b82811115620002f6578251825591602001919060010190620002d9565b5b5090506200030691906200030a565b5090565b6200032f91905b808211156200032b57600081600090555060010162000311565b5090565b90565b6116a080620003426000396000f3fe6080604052600436106100915760003560e01c8063971bd7d411610059578063971bd7d41461034a578063bee187e3146103af578063d1a93d1814610432578063f938c8dd14610478578063ffd7d983146104dd57610091565b80630222958e1461009657806305aea97c146100dc57806307a00d0e146101f157806325ab887c146102375780634ba8ae81146102a3575b600080fd5b6100c2600480360360208110156100ac57600080fd5b810190808035906020019092919050505061059a565b604051808215151515815260200191505060405180910390f35b3480156100e857600080fd5b506100f16109a3565b60405180806020018060200186815260200185815260200184151515158152602001838103835288818151815260200191508051906020019080838360005b8381101561014b578082015181840152602081019050610130565b50505050905090810190601f1680156101785780820380516001836020036101000a031916815260200191505b50838103825287818151815260200191508051906020019080838360005b838110156101b1578082015181840152602081019050610196565b50505050905090810190601f1680156101de5780820380516001836020036101000a031916815260200191505b5097505050505050505060405180910390f35b61021d6004803603602081101561020757600080fd5b8101908080359060200190929190505050610b25565b604051808215151515815260200191505060405180910390f35b34801561024357600080fd5b5061024c610e76565b6040518080602001828103825283818151815260200191508051906020019060200280838360005b8381101561028f578082015181840152602081019050610274565b505050509050019250505060405180910390f35b6102cf600480360360208110156102b957600080fd5b8101908080359060200190929190505050610ece565b6040518080602001828103825283818151815260200191508051906020019080838360005b8381101561030f5780820151818401526020810190506102f4565b50505050905090810190601f16801561033c5780820380516001836020036101000a031916815260200191505b509250505060405180910390f35b34801561035657600080fd5b506103996004803603602081101561036d57600080fd5b81019080803573ffffffffffffffffffffffffffffffffffffffff169060200190929190505050611063565b6040518082815260200191505060405180910390f35b6103b76110b9565b6040518080602001828103825283818151815260200191508051906020019080838360005b838110156103f75780820151818401526020810190506103dc565b50505050905090810190601f1680156104245780820380516001836020036101000a031916815260200191505b509250505060405180910390f35b61045e6004803603602081101561044857600080fd5b81019080803590602001909291905050506112e2565b604051808215151515815260200191505060405180910390f35b34801561048457600080fd5b506104c76004803603602081101561049b57600080fd5b81019080803573ffffffffffffffffffffffffffffffffffffffff169060200190929190505050611477565b6040518082815260200191505060405180910390f35b61051f600480360360208110156104f357600080fd5b81019080803573ffffffffffffffffffffffffffffffffffffffff1690602001909291905050506114c3565b6040518080602001828103825283818151815260200191508051906020019080838360005b8381101561055f578082015181840152602081019050610544565b50505050905090810190601f16801561058c5780820380516001836020036101000a031916815260200191505b509250505060405180910390f35b600080600b6000815481106105ab57fe5b906000526020600020015490506000809050600080905060008090505b600b805490508110156105ff57600b6000815481106105e357fe5b90600052602060002001548201915080806001019150506105c8565b5084811015610659576040517f08c379a000000000000000000000000000000000000000000000000000000000815260040180806020018281038252603d8152602001806115f6603d913960400191505060405180910390fd5b5b600085106107fa5760008090508386039550839050600d60008154811061067d57fe5b9060005260206000200160009054906101000a900473ffffffffffffffffffffffffffffffffffffffff1673ffffffffffffffffffffffffffffffffffffffff166108fc60016005015483029081150290604051600060405180830381858888f193505050501580156106f4573d6000803e3d6000fd5b50600b60008154811061070357fe5b9060005260206000200160009055600d60008154811061071f57fe5b9060005260206000200160006101000a81549073ffffffffffffffffffffffffffffffffffffffff0219169055600b60008154811061075a57fe5b906000526020600020015493508060016007016000600d60008154811061077d57fe5b9060005260206000200160009054906101000a900473ffffffffffffffffffffffffffffffffffffffff1673ffffffffffffffffffffffffffffffffffffffff1673ffffffffffffffffffffffffffffffffffffffff1681526020019081526020016000206000828254039250508190555080830192505061065a565b81600160060160008282540192505081905550816001600201600082825401925050819055506000600160050154830290508034111561088457600081340390503373ffffffffffffffffffffffffffffffffffffffff166108fc829081150290604051600060405180830381858888f19350505050158015610881573d6000803e3d6000fd5b50505b600a60008154811061089257fe5b9060005260206000200160009055600c6000815481106108ae57fe5b9060005260206000200160006101000a81549073ffffffffffffffffffffffffffffffffffffffff021916905582600160070160003373ffffffffffffffffffffffffffffffffffffffff1673ffffffffffffffffffffffffffffffffffffffff168152602001908152602001600020600082825403925050819055507f03b450cee3ec96182af9e1e45e190083a770a02345b0c390e6341db8f07a47bb3384604051808373ffffffffffffffffffffffffffffffffffffffff1673ffffffffffffffffffffffffffffffffffffffff1681526020018281526020019250505060405180910390a16001945050505050919050565b606080600080600060016000018054600181600116156101000203166002900480601f016020809104026020016040519081016040528092919081815260200182805460018160011615610100020316600290048015610a445780601f10610a1957610100808354040283529160200191610a44565b820191906000526020600020905b815481529060010190602001808311610a2757829003601f168201915b50505050509450600180018054600181600116156101000203166002900480601f016020809104026020016040519081016040528092919081815260200182805460018160011615610100020316600290048015610ae35780601f10610ab857610100808354040283529160200191610ae3565b820191906000526020600020905b815481529060010190602001808311610ac657829003601f168201915b5050505050935060016004015492506001600601549150600160080160009054906101000a900460ff1690508484848484945094509450945094509091929394565b600080600a600081548110610b3657fe5b906000526020600020015490506000809050600080905060008090505b600a80549050811015610b8a57600a600081548110610b6e57fe5b9060005260206000200154820191508080600101915050610b53565b5084811015610be4576040517f08c379a00000000000000000000000000000000000000000000000000000000081526004018080602001828103825260398152602001806116336039913960400191505060405180910390fd5b5b60008510610d3257600080905083860395508390508260016007016000600c600081548110610c1057fe5b9060005260206000200160009054906101000a900473ffffffffffffffffffffffffffffffffffffffff1673ffffffffffffffffffffffffffffffffffffffff1673ffffffffffffffffffffffffffffffffffffffff16815260200190815260200160002060008282540192505081905550600a600081548110610c9057fe5b9060005260206000200160009055600c600081548110610cac57fe5b9060005260206000200160006101000a81549073ffffffffffffffffffffffffffffffffffffffff02191690553373ffffffffffffffffffffffffffffffffffffffff166108fc60016005015483029081150290604051600060405180830381858888f19350505050158015610d26573d6000803e3d6000fd5b50808301925050610be5565b816001600601600082825401925050819055508160016002016000828254019250508190555081600160070160003373ffffffffffffffffffffffffffffffffffffffff1673ffffffffffffffffffffffffffffffffffffffff16815260200190815260200160002060008282540392505081905550600b600081548110610db657fe5b9060005260206000200160009055600d600081548110610dd257fe5b9060005260206000200160006101000a81549073ffffffffffffffffffffffffffffffffffffffff02191690557f1a84fce3a38cfa045f1163cdeb014634dbc4cd07fa91763f3fa89c42b86b7f493383604051808373ffffffffffffffffffffffffffffffffffffffff1673ffffffffffffffffffffffffffffffffffffffff1681526020018281526020019250505060405180910390a160019350505050919050565b6060600a805480602002602001604051908101604052809291908181526020018280548015610ec457602002820191906000526020600020905b815481526020019060010190808311610eb0575b5050505050905090565b606060011515600160080160009054906101000a900460ff16151514610f3f576040517f08c379a00000000000000000000000000000000000000000000000000000000081526004018080602001828103825260218152602001806115d56021913960400191505060405180910390fd5b60006001600501548302905080341015610fc1576040517f08c379a00000000000000000000000000000000000000000000000000000000081526004018080602001828103825260158152602001807f416d6f756e74206e6f742073756666696369656e74000000000000000000000081525060200191505060405180910390fd5b600b839080600181540180825580915050906001820390600052602060002001600090919290919091505550600d3390806001815401808255809150509060018203906000526020600020016000909192909190916101000a81548173ffffffffffffffffffffffffffffffffffffffff021916908373ffffffffffffffffffffffffffffffffffffffff1602179055505061105c83610b25565b5050919050565b6000600160070160008373ffffffffffffffffffffffffffffffffffffffff1673ffffffffffffffffffffffffffffffffffffffff16815260200190815260200160002054600160050154029050809050919050565b60603373ffffffffffffffffffffffffffffffffffffffff166000809054906101000a900473ffffffffffffffffffffffffffffffffffffffff1673ffffffffffffffffffffffffffffffffffffffff161461117d576040517f08c379a00000000000000000000000000000000000000000000000000000000081526004018080602001828103825260178152602001807f526571756972656420746f20626520616e206f776e657200000000000000000081525060200191505060405180910390fd5b6000600160080160006101000a81548160ff0219169083151502179055506000809054906101000a900473ffffffffffffffffffffffffffffffffffffffff1673ffffffffffffffffffffffffffffffffffffffff166108fc600160050154600160060154029081150290604051600060405180830381858888f1935050505015801561120e573d6000803e3d6000fd5b507fc04c5165a0aa533091913f2e54b37eee5e306c2537dea3f8ded92bcd7302dc776000809054906101000a900473ffffffffffffffffffffffffffffffffffffffff1660016005015460016006015402604051808373ffffffffffffffffffffffffffffffffffffffff1673ffffffffffffffffffffffffffffffffffffffff1681526020018281526020019250505060405180910390a16040518060400160405280600381526020017f33706d0000000000000000000000000000000000000000000000000000000000815250905090565b600060011515600160080160009054906101000a900460ff16151514611353576040517f08c379a00000000000000000000000000000000000000000000000000000000081526004018080602001828103825260218152602001806115d56021913960400191505060405180910390fd5b600060016005015483029050803410156113d5576040517f08c379a00000000000000000000000000000000000000000000000000000000081526004018080602001828103825260158152602001807f416d6f756e74206e6f742073756666696369656e74000000000000000000000081525060200191505060405180910390fd5b600a839080600181540180825580915050906001820390600052602060002001600090919290919091505550600c3390806001815401808255809150509060018203906000526020600020016000909192909190916101000a81548173ffffffffffffffffffffffffffffffffffffffff021916908373ffffffffffffffffffffffffffffffffffffffff160217905550506114708361059a565b5050919050565b6000600160070160008373ffffffffffffffffffffffffffffffffffffffff1673ffffffffffffffffffffffffffffffffffffffff168152602001908152602001600020549050919050565b60603373ffffffffffffffffffffffffffffffffffffffff166000809054906101000a900473ffffffffffffffffffffffffffffffffffffffff1673ffffffffffffffffffffffffffffffffffffffff1614611587576040517f08c379a00000000000000000000000000000000000000000000000000000000081526004018080602001828103825260178152602001807f526571756972656420746f20626520616e206f776e657200000000000000000081525060200191505060405180910390fd5b600a600160070160008473ffffffffffffffffffffffffffffffffffffffff1673ffffffffffffffffffffffffffffffffffffffff1681526020019081526020016000208190555091905056fe536f7272792c54696d65206973206e6f7420666f72207472616e73616374696f6e4e6f7420656e6f7567682073656c6c6572732c2077696c6c20626520626f75676874207768656e20656e6f7567682073656c6c65727320666f756e642e4e6f7420656e6f756768206275796572732c2077696c6c20626520736f6c64207768656e20656e6f7567682062757965727320666f756e642ea265627a7a723158203d0e4566e88b105962fa1a97527a045c7bc74b7cb8fbff2eec48f18db1417b5964736f6c63430005100032",
  "source": "pragma solidity ^0.5.0;\n\n\n\n// import \"../erc721.sol\";\n\ncontract NEPSETMS {\n\n    address payable owner;\n    // token tokencontract;\n\n\n    struct Event {\n        string stock_name;\n        \n        string website;\n        \n        uint256 totalbuy;\n        uint256 totalsell;\n        uint256 totalshares;\n        uint256 SHARE_PRICE;\n        uint256 sales;\n        mapping(address => uint256) portfolio;\n        bool isOpen;\n    }\n    Event myEvent;\n\n   \n\n    \n    event LogBuyers(address buyer, uint256 quantity);\n    event LogSellers(address seller, uint256 quantity);\n    event LogTransactions(address owner, uint256 balance);\n    \n\n\n    modifier OnlyOwner {\n        require(owner == msg.sender, \"Required to be an owner\");\n        _;\n    }\n    \n\n\n    constructor(string memory stock_name, string memory _url, uint256 totalshares,uint256 SHARE_PRICE) public\n    {\n        owner = msg.sender;\n        myEvent.stock_name = stock_name;\n        myEvent.website = _url;\n        myEvent.totalshares = totalshares;\n        myEvent.SHARE_PRICE = SHARE_PRICE;\n        myEvent.isOpen = true;\n        \n    }\n\n\n    function readEvent()\n        public\n        view\n        returns(string memory description, string memory website, uint totalshares,uint sales, bool isOpen)\n    {\n        description = myEvent.stock_name;\n        website = myEvent.website;\n        totalshares = myEvent.totalshares;\n        sales = myEvent.sales;\n        isOpen = myEvent.isOpen;\n\n        return (description, website, totalshares, sales, isOpen);\n\n    }\n    \n    \n    function PortfolioValue(address ad)\n        public\n        view\n        returns(uint Value)\n    {\n        \n        Value = myEvent.SHARE_PRICE * myEvent.portfolio[ad];\n\n        return (Value);\n\n    }\n    \n        function MarketDepth()\n        external\n        view\n        returns(uint256[] memory)\n    {\n        \n        \n        return buyers;\n\n    }\n\n     function sharecount(address ad)\n        public\n        view\n        returns(uint)\n    {\n\n        return (myEvent.portfolio[ad]);\n\n    }\n    \n\n    uint256[] buyers;\n    uint256[] sellers;\n    address payable [] buyersAddress;\n    address payable [] sellersAddress;\n    uint256 buyersCount=0;\n    \n    function buyShares(uint256 _share) public payable returns (bool) {\n        require(myEvent.isOpen == true, \"Sorry,Time is not for transaction\");\n        uint256 amount = _share * myEvent.SHARE_PRICE;\n        require(msg.value >= amount, \"Amount not sufficient\");\n        buyers.push(_share);\n        buyersAddress.push(msg.sender);\n        buyability(_share);\n       \n        \n    }\n    \n    function buyability(uint256 _share ) public payable  returns (bool) {\n\n        uint256 sell = sellers[0];\n        uint256 temp = 0;\n        uint sum =0;\n        for (uint i = 0; i<sellers.length; i++){\n            sum = sum + sellers[0];\n        }\n        require(sum>=_share,\"Not enough sellers, will be bought when enough sellers found.\");\n        while (_share>=0) {\n            uint transact = 0;\n            _share=_share-sell;\n            transact = sell;\n            sellersAddress[0].transfer(transact* myEvent.SHARE_PRICE);\n            delete sellers[0];\n            delete sellersAddress[0];\n            sell = sellers[0];\n            \n            myEvent.portfolio[sellersAddress[0]]-= transact;\n            temp= temp + transact;\n            \n            \n        }\n        myEvent.sales += temp;\n        myEvent.totalbuy += temp;\n        uint256 amount = temp* myEvent.SHARE_PRICE;\n\n        if (msg.value > amount) {\n            uint256 surplus = msg.value - amount;\n            msg.sender.transfer(surplus);\n        }\n        delete buyers[0];\n        delete buyersAddress[0];\n        myEvent.portfolio[msg.sender] -= temp;\n        \n\n        emit LogBuyers(msg.sender, temp);\n        return true;\n        \n    }\n    \n    function sellShares(uint256 _share) public payable returns (string memory) {\n        require(myEvent.isOpen == true, \"Sorry,Time is not for transaction\");\n        uint256 amount = _share * myEvent.SHARE_PRICE;\n        require(msg.value >= amount, \"Amount not sufficient\");\n        sellers.push(_share);\n        sellersAddress.push(msg.sender);\n        sellability(_share);\n        \n\n        \n    }\n    \n    function sellability(uint256 _share ) public payable  returns (bool) {\n\n        uint256 buy = buyers[0];\n        uint256 temp = 0;\n        uint sum =0;\n        for (uint i = 0; i<buyers.length; i++){\n            sum = sum + buyers[0];\n        }\n        require(sum>=_share,\"Not enough buyers, will be sold when enough buyers found.\");\n        while (_share>=0) {\n            uint transact = 0;\n            _share=_share-buy;\n            transact = buy;\n            myEvent.portfolio[buyersAddress[0]] += temp;\n            delete buyers[0];\n            delete buyersAddress[0];\n            \n            msg.sender.transfer(transact* myEvent.SHARE_PRICE);\n            temp= temp + transact;\n            \n            \n        }\n        myEvent.sales += temp;\n        myEvent.totalbuy += temp;\n        myEvent.portfolio[msg.sender] -= temp;\n\n        \n        delete sellers[0];\n        delete sellersAddress[0];\n\n        emit LogSellers(msg.sender, temp);\n        return true;\n        \n    }\n    \n    function allocate(address IPO) public payable returns(string memory){\n        require(owner == msg.sender, \"Required to be an owner\");\n        myEvent.portfolio[IPO] = 10;\n        }\n\n\n\n\n    function SEBON() public OnlyOwner payable returns (string memory) {\n        myEvent.isOpen = false;\n        owner.transfer(myEvent.sales * myEvent.SHARE_PRICE);\n\n        emit LogTransactions(owner, myEvent.sales * myEvent.SHARE_PRICE);\n        return \"3pm\";\n    }\n}\n",
  "sourcePath": "/home/kalyan/Desktop/Blockchain-Aided-TMS/contracts/advanced_tms.sol",
  "compiler": {
    "name": "solc",
    "version": "0.5.16+commit.9c3226ce.Emscripten.clang"
  },
  "schemaVersion": "3.4.1",
  "updatedAt": "2021-07-19T18:59:16.958Z",
  "devdoc": {
    "methods": {}
  },
  "userdoc": {
    "methods": {}
  }
}