{
  "contractName": "TMS",
  "abi": [
    {
      "inputs": [
        {
          "internalType": "string",
          "name": "stock_name",
          "type": "string"
        },
        {
          "internalType": "string",
          "name": "_url",
          "type": "string"
        },
        {
          "internalType": "uint256",
          "name": "totalshares",
          "type": "uint256"
        },
        {
          "internalType": "uint256",
          "name": "SHARE_PRICE",
          "type": "uint256"
        }
      ],
      "payable": false,
      "stateMutability": "nonpayable",
      "type": "constructor"
    },
    {
      "anonymous": false,
      "inputs": [
        {
          "indexed": false,
          "internalType": "address",
          "name": "buyer",
          "type": "address"
        },
        {
          "indexed": false,
          "internalType": "uint256",
          "name": "quantity",
          "type": "uint256"
        }
      ],
      "name": "LogBuyers",
      "type": "event"
    },
    {
      "anonymous": false,
      "inputs": [
        {
          "indexed": false,
          "internalType": "address",
          "name": "seller",
          "type": "address"
        },
        {
          "indexed": false,
          "internalType": "uint256",
          "name": "quantity",
          "type": "uint256"
        }
      ],
      "name": "LogSellers",
      "type": "event"
    },
    {
      "anonymous": false,
      "inputs": [
        {
          "indexed": false,
          "internalType": "address",
          "name": "owner",
          "type": "address"
        },
        {
          "indexed": false,
          "internalType": "uint256",
          "name": "balance",
          "type": "uint256"
        }
      ],
      "name": "LogTransactions",
      "type": "event"
    },
    {
      "constant": true,
      "inputs": [],
      "name": "readEvent",
      "outputs": [
        {
          "internalType": "string",
          "name": "description",
          "type": "string"
        },
        {
          "internalType": "string",
          "name": "website",
          "type": "string"
        },
        {
          "internalType": "uint256",
          "name": "totalshares",
          "type": "uint256"
        },
        {
          "internalType": "uint256",
          "name": "sales",
          "type": "uint256"
        },
        {
          "internalType": "bool",
          "name": "isOpen",
          "type": "bool"
        }
      ],
      "payable": false,
      "stateMutability": "view",
      "type": "function"
    },
    {
      "constant": true,
      "inputs": [
        {
          "internalType": "address",
          "name": "ad",
          "type": "address"
        }
      ],
      "name": "PortfolioValue",
      "outputs": [
        {
          "internalType": "uint256",
          "name": "Value",
          "type": "uint256"
        }
      ],
      "payable": false,
      "stateMutability": "view",
      "type": "function"
    },
    {
      "constant": true,
      "inputs": [
        {
          "internalType": "address",
          "name": "ad",
          "type": "address"
        }
      ],
      "name": "sharecount",
      "outputs": [
        {
          "internalType": "uint256",
          "name": "",
          "type": "uint256"
        }
      ],
      "payable": false,
      "stateMutability": "view",
      "type": "function"
    },
    {
      "constant": false,
      "inputs": [
        {
          "internalType": "uint256",
          "name": "_share",
          "type": "uint256"
        }
      ],
      "name": "buyShares",
      "outputs": [
        {
          "internalType": "bool",
          "name": "",
          "type": "bool"
        }
      ],
      "payable": true,
      "stateMutability": "payable",
      "type": "function"
    },
    {
      "constant": false,
      "inputs": [
        {
          "internalType": "uint256",
          "name": "_share",
          "type": "uint256"
        }
      ],
      "name": "sellShares",
      "outputs": [
        {
          "internalType": "string",
          "name": "",
          "type": "string"
        }
      ],
      "payable": true,
      "stateMutability": "payable",
      "type": "function"
    },
    {
      "constant": false,
      "inputs": [],
      "name": "SEBON",
      "outputs": [
        {
          "internalType": "string",
          "name": "",
          "type": "string"
        }
      ],
      "payable": true,
      "stateMutability": "payable",
      "type": "function"
    }
  ],
  "bytecode": "0x60806040523480156200001157600080fd5b5060405162000fa238038062000fa2833981810160405260808110156200003757600080fd5b81019080805160405193929190846401000000008211156200005857600080fd5b838201915060208201858111156200006f57600080fd5b82518660018202830111640100000000821117156200008d57600080fd5b8083526020830192505050908051906020019080838360005b83811015620000c3578082015181840152602081019050620000a6565b50505050905090810190601f168015620000f15780820380516001836020036101000a031916815260200191505b50604052602001805160405193929190846401000000008211156200011557600080fd5b838201915060208201858111156200012c57600080fd5b82518660018202830111640100000000821117156200014a57600080fd5b8083526020830192505050908051906020019080838360005b838110156200018057808201518184015260208101905062000163565b50505050905090810190601f168015620001ae5780820380516001836020036101000a031916815260200191505b506040526020018051906020019092919080519060200190929190505050336000806101000a81548173ffffffffffffffffffffffffffffffffffffffff021916908373ffffffffffffffffffffffffffffffffffffffff1602179055508360016000019080519060200190620002279291906200027e565b5082600180019080519060200190620002429291906200027e565b50816001600401819055508060016005018190555060018060080160006101000a81548160ff021916908315150217905550505050506200032d565b828054600181600116156101000203166002900490600052602060002090601f016020900481019282601f10620002c157805160ff1916838001178555620002f2565b82800160010185558215620002f2579182015b82811115620002f1578251825591602001919060010190620002d4565b5b50905062000301919062000305565b5090565b6200032a91905b80821115620003265760008160009055506001016200030c565b5090565b90565b610c65806200033d6000396000f3fe6080604052600436106100555760003560e01c806305aea97c1461005a5780634ba8ae811461016f578063971bd7d414610216578063bee187e31461027b578063d1a93d18146102fe578063f938c8dd14610344575b600080fd5b34801561006657600080fd5b5061006f6103a9565b60405180806020018060200186815260200185815260200184151515158152602001838103835288818151815260200191508051906020019080838360005b838110156100c95780820151818401526020810190506100ae565b50505050905090810190601f1680156100f65780820380516001836020036101000a031916815260200191505b50838103825287818151815260200191508051906020019080838360005b8381101561012f578082015181840152602081019050610114565b50505050905090810190601f16801561015c5780820380516001836020036101000a031916815260200191505b5097505050505050505060405180910390f35b61019b6004803603602081101561018557600080fd5b810190808035906020019092919050505061052b565b6040518080602001828103825283818151815260200191508051906020019080838360005b838110156101db5780820151818401526020810190506101c0565b50505050905090810190601f1680156102085780820380516001836020036101000a031916815260200191505b509250505060405180910390f35b34801561022257600080fd5b506102656004803603602081101561023957600080fd5b81019080803573ffffffffffffffffffffffffffffffffffffffff16906020019092919050505061070e565b6040518082815260200191505060405180910390f35b610283610764565b6040518080602001828103825283818151815260200191508051906020019080838360005b838110156102c35780820151818401526020810190506102a8565b50505050905090810190601f1680156102f05780820380516001836020036101000a031916815260200191505b509250505060405180910390f35b61032a6004803603602081101561031457600080fd5b810190808035906020019092919050505061098d565b604051808215151515815260200191505060405180910390f35b34801561035057600080fd5b506103936004803603602081101561036757600080fd5b81019080803573ffffffffffffffffffffffffffffffffffffffff169060200190929190505050610bc3565b6040518082815260200191505060405180910390f35b606080600080600060016000018054600181600116156101000203166002900480601f01602080910402602001604051908101604052809291908181526020018280546001816001161561010002031660029004801561044a5780601f1061041f5761010080835404028352916020019161044a565b820191906000526020600020905b81548152906001019060200180831161042d57829003601f168201915b50505050509450600180018054600181600116156101000203166002900480601f0160208091040260200160405190810160405280929190818152602001828054600181600116156101000203166002900480156104e95780601f106104be576101008083540402835291602001916104e9565b820191906000526020600020905b8154815290600101906020018083116104cc57829003601f168201915b5050505050935060016004015492506001600601549150600160080160009054906101000a900460ff1690508484848484945094509450945094509091929394565b606060011515600160080160009054906101000a900460ff1615151461059c576040517f08c379a0000000000000000000000000000000000000000000000000000000008152600401808060200182810382526021815260200180610c106021913960400191505060405180910390fd5b60006001600501548302905082600160070160003373ffffffffffffffffffffffffffffffffffffffff1673ffffffffffffffffffffffffffffffffffffffff1681526020019081526020016000206000828254039250508190555082600160060160008282540192505081905550826001600301600082825401925050819055503373ffffffffffffffffffffffffffffffffffffffff166108fc829081150290604051600060405180830381858888f19350505050158015610664573d6000803e3d6000fd5b507f1a84fce3a38cfa045f1163cdeb014634dbc4cd07fa91763f3fa89c42b86b7f493384604051808373ffffffffffffffffffffffffffffffffffffffff1673ffffffffffffffffffffffffffffffffffffffff1681526020018281526020019250505060405180910390a16040518060400160405280601081526020017f5368617265732070757263686173656400000000000000000000000000000000815250915050919050565b6000600160070160008373ffffffffffffffffffffffffffffffffffffffff1673ffffffffffffffffffffffffffffffffffffffff16815260200190815260200160002054600160050154029050809050919050565b60603373ffffffffffffffffffffffffffffffffffffffff166000809054906101000a900473ffffffffffffffffffffffffffffffffffffffff1673ffffffffffffffffffffffffffffffffffffffff1614610828576040517f08c379a00000000000000000000000000000000000000000000000000000000081526004018080602001828103825260178152602001807f526571756972656420746f20626520616e206f776e657200000000000000000081525060200191505060405180910390fd5b6000600160080160006101000a81548160ff0219169083151502179055506000809054906101000a900473ffffffffffffffffffffffffffffffffffffffff1673ffffffffffffffffffffffffffffffffffffffff166108fc600160050154600160060154029081150290604051600060405180830381858888f193505050501580156108b9573d6000803e3d6000fd5b507fc04c5165a0aa533091913f2e54b37eee5e306c2537dea3f8ded92bcd7302dc776000809054906101000a900473ffffffffffffffffffffffffffffffffffffffff1660016005015460016006015402604051808373ffffffffffffffffffffffffffffffffffffffff1673ffffffffffffffffffffffffffffffffffffffff1681526020018281526020019250505060405180910390a16040518060400160405280600381526020017f33706d0000000000000000000000000000000000000000000000000000000000815250905090565b600060011515600160080160009054906101000a900460ff161515146109fe576040517f08c379a0000000000000000000000000000000000000000000000000000000008152600401808060200182810382526021815260200180610c106021913960400191505060405180910390fd5b60006001600501548302905080341015610a80576040517f08c379a00000000000000000000000000000000000000000000000000000000081526004018080602001828103825260158152602001807f416d6f756e74206e6f742073756666696369656e74000000000000000000000081525060200191505060405180910390fd5b82600160070160003373ffffffffffffffffffffffffffffffffffffffff1673ffffffffffffffffffffffffffffffffffffffff16815260200190815260200160002060008282540192505081905550826001600601600082825401925050819055508260016002016000828254019250508190555080341115610b4e57600081340390503373ffffffffffffffffffffffffffffffffffffffff166108fc829081150290604051600060405180830381858888f19350505050158015610b4b573d6000803e3d6000fd5b50505b7f03b450cee3ec96182af9e1e45e190083a770a02345b0c390e6341db8f07a47bb3384604051808373ffffffffffffffffffffffffffffffffffffffff1673ffffffffffffffffffffffffffffffffffffffff1681526020018281526020019250505060405180910390a16001915050919050565b6000600160070160008373ffffffffffffffffffffffffffffffffffffffff1673ffffffffffffffffffffffffffffffffffffffff16815260200190815260200160002054905091905056fe536f7272792c54696d65206973206e6f7420666f72207472616e73616374696f6ea265627a7a72315820cd58ff7e4eee800b6f56ab38bd64532dc64580ccdbc84618dfc0d7e7317bd02a64736f6c63430005100032",
  "source": "pragma solidity ^0.5.16;\ncontract TMS {\n\n    address payable owner;\n\n\n    struct Event {\n        string stock_name;\n        \n        string website;\n        \n        uint256 totalbuy;\n        uint256 totalsell;\n        uint256 totalshares;\n        uint256 SHARE_PRICE;\n        uint256 sales;\n        mapping(address => uint256) portfolio;\n        bool isOpen;\n    }\n    Event myEvent;\n\n   \n\n    \n    event LogBuyers(address buyer, uint256 quantity);\n    event LogSellers(address seller, uint256 quantity);\n    event LogTransactions(address owner, uint256 balance);\n    \n\n\n    modifier OnlyOwner {\n        require(owner == msg.sender, \"Required to be an owner\");\n        _;\n    }\n    \n\n\n    constructor(string memory stock_name, string memory _url, uint256 totalshares,uint256 SHARE_PRICE) public\n    {\n        owner = msg.sender;\n        myEvent.stock_name = stock_name;\n        myEvent.website = _url;\n        myEvent.totalshares = totalshares;\n        myEvent.SHARE_PRICE = SHARE_PRICE;\n        myEvent.isOpen = true;\n    }\n\n\n    function readEvent()\n        public\n        view\n        returns(string memory description, string memory website, uint totalshares,uint sales, bool isOpen)\n    {\n        description = myEvent.stock_name;\n        website = myEvent.website;\n        totalshares = myEvent.totalshares;\n        sales = myEvent.sales;\n        isOpen = myEvent.isOpen;\n\n        return (description, website, totalshares, sales, isOpen);\n\n    }\n    \n    \n    function PortfolioValue(address ad)\n        public\n        view\n        returns(uint Value)\n    {\n        \n        Value = myEvent.SHARE_PRICE * myEvent.portfolio[ad];\n\n        return (Value);\n\n    }\n\n     function sharecount(address ad)\n        public\n        view\n        returns(uint)\n    {\n\n        return (myEvent.portfolio[ad]);\n\n    }\n    \n\n    \n     function buyShares(uint256 _share) public payable returns (bool) {\n        require(myEvent.isOpen == true, \"Sorry,Time is not for transaction\");\n        uint256 amount = _share * myEvent.SHARE_PRICE;\n        require(msg.value >= amount, \"Amount not sufficient\");\n        myEvent.portfolio[msg.sender] += _share;\n        myEvent.sales += _share;\n        myEvent.totalbuy += _share;\n\n        if (msg.value > amount) {\n            uint256 surplus = msg.value - amount;\n            msg.sender.transfer(surplus);\n        }\n\n        emit LogBuyers(msg.sender, _share);\n        return true;\n    }\n    \n    function sellShares(uint256 _share) public payable returns (string memory) {\n        require(myEvent.isOpen == true, \"Sorry,Time is not for transaction\");\n        uint256 amount = _share * myEvent.SHARE_PRICE;\n        myEvent.portfolio[msg.sender] -= _share;\n        myEvent.sales += _share;\n        myEvent.totalsell += _share;\n        msg.sender.transfer(amount);\n        emit LogSellers(msg.sender, _share);\n        return (\"Shares purchased\");\n    }\n\n\n\n\n    function SEBON() public OnlyOwner payable returns (string memory) {\n        myEvent.isOpen = false;\n        owner.transfer(myEvent.sales * myEvent.SHARE_PRICE);\n\n        emit LogTransactions(owner, myEvent.sales * myEvent.SHARE_PRICE);\n        return \"3pm\";\n    }\n}",
  "sourcePath": "/home/kalyan/Desktop/Blockchain-Aided-TMS/contracts/TMS.sol",
  "compiler": {
    "name": "solc",
    "version": "0.5.16+commit.9c3226ce.Emscripten.clang"
  },
  "schemaVersion": "3.4.1",
  "updatedAt": "2021-07-13T13:58:03.601Z",
  "devdoc": {
    "methods": {}
  },
  "userdoc": {
    "methods": {}
  }
}